:020000040000FA
:0600000078EF01F0120090
:020006001200E6
:060008000EEF00F01200F3
:02000E000100EF
:0C0010000C03000080000000190000003C
:04001C00DACFE4FF54
:10002000E2CFDAFFE9CFE4FFEACFE4FFF6CFE4FF67
:10003000F7CFE4FFF5CFE4FFF3CFE4FFF4CFE4FF25
:10004000FACFE4FF00EE00F0140EE80403E3EECF75
:10005000E4FFFBD700EE16F0000EE80403E3EECF5A
:10006000E4FFFBD7E6529EA202D09E9214D09EAC33
:1000700012D09E9CC4500001806F816B80C081F0C3
:10008000806BC350146E156A14508027155081235D
:1000900049D83DD8C284E55200EE15F0000EE804C0
:1000A00003E3E5CFEDFFFBD700EE13F0140EE804F9
:1000B00003E3E5CFEDFFFBD7E5CFFAFFE5CFF4FF94
:1000C000E5CFF3FFE5CFF5FFE5CFF7FFE5CFF6FF8F
:1000D000E5CFEAFFE5CFE9FFE5CFDAFF1100928037
:1000E0009494956A410EC26E8E0EC16E0F0EBD6E57
:1000F0007C0ECB6E030ECA6EF28EF28C9D8C9E9C93
:100100009D829E92CC6A03D8C284FFD71200080E4B
:10011000D56EEC0ED66EF294D58EF2A4FED7F29484
:10012000D59E1200090E086E096A80C00DF081C0CC
:100130000EF034EC01F006C080F007C081F00D68CD
:10014000030E0E6E80C008F081C009F052EC01F081
:1001500008C080F009C081F00001985119E180C009
:100160008CFF010E986F80C082F081C083F0CA843A
:1001700080C0E9FF81C0EAFFD890E936EA36E80698
:10018000FBE1840EE926000EEA22EF50BE6E1CD081
:100190008251801902E18351811916E080C08CFFE1
:1001A00080C082F081C083F080C0E9FF81C0EAFF97
:1001B000010ED890E936EA36E806FBE1840EE9261E
:0A01C000000EEA22EF50BE6E12009E
:0601CA000E0EF66E000EA1
:1001D000F76E000EF86E00010900F5509E6F0900E1
:1001E000F5509F6F03E19E6701D03DD00900F550A7
:1001F000996F0900F5509A6F0900F5509B6F09003F
:100200000900F550E96E0900F550EA6E0900090091
:100210000900F5509C6F0900F5509D6F0900090019
:10022000F6CFA0F0F7CFA1F0F8CFA2F099C0F6FF7B
:100230009AC0F7FF9BC0F8FF00019C5302E19D5359
:1002400007E00900F550EE6E9C07F8E29D07F9D72C
:10025000A0C0F6FFA1C0F7FFA2C0F8FF00019E07F3
:08026000000E9F5BBFD71200E6
:0802680008C012F008500D025D
:10027000F4CF07F0F3CF06F009500E02F4CF09F0E7
:10028000F3CF08F00D02F3500726F4500822E86A75
:10029000092212500E02F3500726F4500822E86A91
:0402A0000922000C23
:0C02A400056A046A100EE76ED890083658
:1002B0000936043605360D50045C0E50055805E32A
:1002C0000D50045E0E50055A082AE72EF0D7120092
:1002D000000EF36E00EE00F0060E01D81200EA6088
:1002E00002D0EE6AFCD7F350E9601200EE6AFCD748
:1002F00015EE00F025EE00F0F86A019CE5EC00F048
:0C03000003EC00F06FEC00F0FBD71200E3
:04030C0000000000ED
:1003100000000A0014001E00320046005A0064006B
:0503200078007C0000E4
:020000040030CA
:010003000EEE
:00000001FF
